{
  "_format": "hh-sol-artifact-1",
  "contractName": "WagerManager",
  "sourceName": "contracts/WagerManager.sol",
  "abi": [
    {
      "inputs": [
        {
          "internalType": "address",
          "name": "_initialWantToken",
          "type": "address"
        }
      ],
      "stateMutability": "nonpayable",
      "type": "constructor"
    },
    {
      "anonymous": false,
      "inputs": [
        {
          "indexed": true,
          "internalType": "address",
          "name": "previousOwner",
          "type": "address"
        },
        {
          "indexed": true,
          "internalType": "address",
          "name": "newOwner",
          "type": "address"
        }
      ],
      "name": "OwnershipTransferred",
      "type": "event"
    },
    {
      "anonymous": false,
      "inputs": [
        {
          "indexed": true,
          "internalType": "address",
          "name": "address0",
          "type": "address"
        },
        {
          "indexed": true,
          "internalType": "address",
          "name": "address1",
          "type": "address"
        },
        {
          "indexed": false,
          "internalType": "uint256",
          "name": "wagerSize",
          "type": "uint256"
        },
        {
          "indexed": false,
          "internalType": "string",
          "name": "description",
          "type": "string"
        },
        {
          "indexed": false,
          "internalType": "uint256",
          "name": "wagerId",
          "type": "uint256"
        }
      ],
      "name": "WagerCreated",
      "type": "event"
    },
    {
      "inputs": [
        {
          "internalType": "address",
          "name": "_opponent",
          "type": "address"
        },
        {
          "internalType": "uint256",
          "name": "_wagerSize",
          "type": "uint256"
        },
        {
          "internalType": "string",
          "name": "_description",
          "type": "string"
        }
      ],
      "name": "createWager",
      "outputs": [],
      "stateMutability": "nonpayable",
      "type": "function"
    },
    {
      "inputs": [
        {
          "internalType": "address",
          "name": "_selectedAddress",
          "type": "address"
        }
      ],
      "name": "getNickname",
      "outputs": [
        {
          "internalType": "string",
          "name": "",
          "type": "string"
        }
      ],
      "stateMutability": "view",
      "type": "function"
    },
    {
      "inputs": [],
      "name": "getWagers",
      "outputs": [
        {
          "components": [
            {
              "internalType": "string",
              "name": "description",
              "type": "string"
            },
            {
              "internalType": "address",
              "name": "address0",
              "type": "address"
            },
            {
              "internalType": "address",
              "name": "address1",
              "type": "address"
            },
            {
              "internalType": "uint8",
              "name": "status",
              "type": "uint8"
            },
            {
              "internalType": "uint8",
              "name": "address0Verdict",
              "type": "uint8"
            },
            {
              "internalType": "uint8",
              "name": "address1Verdict",
              "type": "uint8"
            },
            {
              "internalType": "uint256",
              "name": "wagerSize",
              "type": "uint256"
            },
            {
              "internalType": "uint256",
              "name": "wagerId",
              "type": "uint256"
            }
          ],
          "internalType": "struct WagerManager.Wager[]",
          "name": "",
          "type": "tuple[]"
        }
      ],
      "stateMutability": "view",
      "type": "function"
    },
    {
      "inputs": [],
      "name": "owner",
      "outputs": [
        {
          "internalType": "address",
          "name": "",
          "type": "address"
        }
      ],
      "stateMutability": "view",
      "type": "function"
    },
    {
      "inputs": [
        {
          "internalType": "uint256",
          "name": "_wagerId",
          "type": "uint256"
        },
        {
          "internalType": "uint8",
          "name": "_response",
          "type": "uint8"
        }
      ],
      "name": "provideWagerResponse",
      "outputs": [],
      "stateMutability": "nonpayable",
      "type": "function"
    },
    {
      "inputs": [
        {
          "internalType": "uint256",
          "name": "_wagerId",
          "type": "uint256"
        },
        {
          "internalType": "uint8",
          "name": "_verdict",
          "type": "uint8"
        }
      ],
      "name": "provideWagerVerdict",
      "outputs": [],
      "stateMutability": "nonpayable",
      "type": "function"
    },
    {
      "inputs": [],
      "name": "renounceOwnership",
      "outputs": [],
      "stateMutability": "nonpayable",
      "type": "function"
    },
    {
      "inputs": [
        {
          "internalType": "string",
          "name": "_nickname",
          "type": "string"
        }
      ],
      "name": "setNickname",
      "outputs": [],
      "stateMutability": "nonpayable",
      "type": "function"
    },
    {
      "inputs": [
        {
          "internalType": "address",
          "name": "newOwner",
          "type": "address"
        }
      ],
      "name": "transferOwnership",
      "outputs": [],
      "stateMutability": "nonpayable",
      "type": "function"
    },
    {
      "inputs": [],
      "name": "wantToken",
      "outputs": [
        {
          "internalType": "address",
          "name": "",
          "type": "address"
        }
      ],
      "stateMutability": "view",
      "type": "function"
    }
  ],
  "bytecode": "0x60806040523480156200001157600080fd5b5060405162002c5938038062002c598339818101604052810190620000379190620001c3565b620000576200004b620000e060201b60201c565b620000e860201b60201c565b80600260006101000a81548173ffffffffffffffffffffffffffffffffffffffff021916908373ffffffffffffffffffffffffffffffffffffffff16021790555033600360006101000a81548173ffffffffffffffffffffffffffffffffffffffff021916908373ffffffffffffffffffffffffffffffffffffffff160217905550506200023d565b600033905090565b60008060009054906101000a900473ffffffffffffffffffffffffffffffffffffffff169050816000806101000a81548173ffffffffffffffffffffffffffffffffffffffff021916908373ffffffffffffffffffffffffffffffffffffffff1602179055508173ffffffffffffffffffffffffffffffffffffffff168173ffffffffffffffffffffffffffffffffffffffff167f8be0079c531659141344cd1fd0a4f28419497f9722a3daafe3b4186f6b6457e060405160405180910390a35050565b600081519050620001bd8162000223565b92915050565b600060208284031215620001d657600080fd5b6000620001e684828501620001ac565b91505092915050565b6000620001fc8262000203565b9050919050565b600073ffffffffffffffffffffffffffffffffffffffff82169050919050565b6200022e81620001ef565b81146200023a57600080fd5b50565b612a0c806200024d6000396000f3fe608060405234801561001057600080fd5b506004361061009e5760003560e01c80638da5cb5b116100665780638da5cb5b1461011d57806392b7cdb51461013b578063adaccd7414610159578063d23e048014610189578063f2fde38b146101a75761009e565b80631c5d9faa146100a357806321d14552146100bf57806369afd075146100db578063715018a6146100f7578063807ba87714610101575b600080fd5b6100bd60048036038101906100b89190611d0e565b6101c3565b005b6100d960048036038101906100d49190611c79565b610216565b005b6100f560048036038101906100f09190611d7c565b61075d565b005b6100ff610be2565b005b61011b60048036038101906101169190611d7c565b610c6a565b005b610125611364565b60405161013291906121a2565b60405180910390f35b61014361138d565b6040516101509190612246565b60405180910390f35b610173600480360381019061016e9190611c50565b611544565b6040516101809190612268565b60405180910390f35b610191611615565b60405161019e91906121a2565b60405180910390f35b6101c160048036038101906101bc9190611c50565b61163b565b005b8181600660003373ffffffffffffffffffffffffffffffffffffffff1673ffffffffffffffffffffffffffffffffffffffff16815260200190815260200160002091906102119291906119fa565b505050565b82600260009054906101000a900473ffffffffffffffffffffffffffffffffffffffff1673ffffffffffffffffffffffffffffffffffffffff1663dd62ed3e33306040518363ffffffff1660e01b81526004016102749291906121bd565b60206040518083038186803b15801561028c57600080fd5b505afa1580156102a0573d6000803e3d6000fd5b505050506040513d601f19601f820116820180604052508101906102c49190611d53565b1015610305576040517f08c379a00000000000000000000000000000000000000000000000000000000081526004016102fc9061234a565b60405180910390fd5b600260009054906101000a900473ffffffffffffffffffffffffffffffffffffffff1673ffffffffffffffffffffffffffffffffffffffff166323b872dd3330866040518463ffffffff1660e01b8152600401610364939291906121e6565b602060405180830381600087803b15801561037e57600080fd5b505af1158015610392573d6000803e3d6000fd5b505050506040513d601f19601f820116820180604052508101906103b69190611ce5565b6103f5576040517f08c379a00000000000000000000000000000000000000000000000000000000081526004016103ec9061232a565b60405180910390fd5b600060405180610100016040528084848080601f016020809104026020016040519081016040528093929190818152602001838380828437600081840152601f19601f8201169050808301925050505050505081526020013373ffffffffffffffffffffffffffffffffffffffff1681526020018673ffffffffffffffffffffffffffffffffffffffff168152602001600060ff168152602001600060ff168152602001600060ff1681526020018581526020016104b36001611733565b8152509050600460003373ffffffffffffffffffffffffffffffffffffffff1673ffffffffffffffffffffffffffffffffffffffff1681526020019081526020016000206105016001611733565b9080600181540180825580915050600190039060005260206000200160009091909190915055600460008673ffffffffffffffffffffffffffffffffffffffff1673ffffffffffffffffffffffffffffffffffffffff1681526020019081526020016000206105706001611733565b908060018154018082558091505060019003906000526020600020016000909190919091505580600560006105a56001611733565b815260200190815260200160002060008201518160000190805190602001906105cf929190611a80565b5060208201518160010160006101000a81548173ffffffffffffffffffffffffffffffffffffffff021916908373ffffffffffffffffffffffffffffffffffffffff16021790555060408201518160020160006101000a81548173ffffffffffffffffffffffffffffffffffffffff021916908373ffffffffffffffffffffffffffffffffffffffff16021790555060608201518160020160146101000a81548160ff021916908360ff16021790555060808201518160020160156101000a81548160ff021916908360ff16021790555060a08201518160020160166101000a81548160ff021916908360ff16021790555060c0820151816003015560e082015181600401559050508473ffffffffffffffffffffffffffffffffffffffff163373ffffffffffffffffffffffffffffffffffffffff167f43dfc87e25c483d83aee17917d70593e20bd8e180bc271b415a9862f1056cc078686866107346001611733565b604051610744949392919061242a565b60405180910390a36107566001611741565b5050505050565b60006005600084815260200190815260200160002090503373ffffffffffffffffffffffffffffffffffffffff168160020160009054906101000a900473ffffffffffffffffffffffffffffffffffffffff1673ffffffffffffffffffffffffffffffffffffffff1614610806576040517f08c379a00000000000000000000000000000000000000000000000000000000081526004016107fd9061228a565b60405180910390fd5b60008160020160149054906101000a900460ff1660ff161461085d576040517f08c379a0000000000000000000000000000000000000000000000000000000008152600401610854906122ca565b60405180910390fd5b60018260ff161480610872575060028260ff16145b6108b1576040517f08c379a00000000000000000000000000000000000000000000000000000000081526004016108a89061238a565b60405180910390fd5b60028260ff161415610aa9578060030154600260009054906101000a900473ffffffffffffffffffffffffffffffffffffffff1673ffffffffffffffffffffffffffffffffffffffff1663dd62ed3e33306040518363ffffffff1660e01b815260040161091f9291906121bd565b60206040518083038186803b15801561093757600080fd5b505afa15801561094b573d6000803e3d6000fd5b505050506040513d601f19601f8201168201806040525081019061096f9190611d53565b10156109b0576040517f08c379a00000000000000000000000000000000000000000000000000000000081526004016109a79061234a565b60405180910390fd5b600260009054906101000a900473ffffffffffffffffffffffffffffffffffffffff1673ffffffffffffffffffffffffffffffffffffffff166323b872dd333084600301546040518463ffffffff1660e01b8152600401610a13939291906121e6565b602060405180830381600087803b158015610a2d57600080fd5b505af1158015610a41573d6000803e3d6000fd5b505050506040513d601f19601f82011682018060405250810190610a659190611ce5565b610aa4576040517f08c379a0000000000000000000000000000000000000000000000000000000008152600401610a9b906122ea565b60405180910390fd5b610bc0565b600260009054906101000a900473ffffffffffffffffffffffffffffffffffffffff1673ffffffffffffffffffffffffffffffffffffffff1663a9059cbb8260010160009054906101000a900473ffffffffffffffffffffffffffffffffffffffff1683600301546040518363ffffffff1660e01b8152600401610b2e92919061221d565b602060405180830381600087803b158015610b4857600080fd5b505af1158015610b5c573d6000803e3d6000fd5b505050506040513d601f19601f82011682018060405250810190610b809190611ce5565b610bbf576040517f08c379a0000000000000000000000000000000000000000000000000000000008152600401610bb6906122aa565b60405180910390fd5b5b818160020160146101000a81548160ff021916908360ff160217905550505050565b610bea611757565b73ffffffffffffffffffffffffffffffffffffffff16610c08611364565b73ffffffffffffffffffffffffffffffffffffffff1614610c5e576040517f08c379a0000000000000000000000000000000000000000000000000000000008152600401610c55906123ca565b60405180910390fd5b610c68600061175f565b565b60006005600084815260200190815260200160002090503373ffffffffffffffffffffffffffffffffffffffff168160010160009054906101000a900473ffffffffffffffffffffffffffffffffffffffff1673ffffffffffffffffffffffffffffffffffffffff161480610d2e57503373ffffffffffffffffffffffffffffffffffffffff168160020160009054906101000a900473ffffffffffffffffffffffffffffffffffffffff1673ffffffffffffffffffffffffffffffffffffffff16145b610d6d576040517f08c379a0000000000000000000000000000000000000000000000000000000008152600401610d649061228a565b60405180910390fd5b60018260ff161480610d82575060028260ff16145b610dc1576040517f08c379a0000000000000000000000000000000000000000000000000000000008152600401610db8906123aa565b60405180910390fd5b3373ffffffffffffffffffffffffffffffffffffffff168160010160009054906101000a900473ffffffffffffffffffffffffffffffffffffffff1673ffffffffffffffffffffffffffffffffffffffff161415610e925760008160020160159054906101000a900460ff1660ff1614610e70576040517f08c379a0000000000000000000000000000000000000000000000000000000008152600401610e67906123ea565b60405180910390fd5b818160020160156101000a81548160ff021916908360ff160217905550610f07565b60008160020160169054906101000a900460ff1660ff1614610ee9576040517f08c379a0000000000000000000000000000000000000000000000000000000008152600401610ee0906123ea565b60405180910390fd5b818160020160166101000a81548160ff021916908360ff1602179055505b60008160020160159054906101000a900460ff1660ff1614158015610f41575060008160020160169054906101000a900460ff1660ff1614155b1561135f5760038160020160146101000a81548160ff021916908360ff1602179055508060020160169054906101000a900460ff1660ff168160020160159054906101000a900460ff1660ff1614156110b957600260009054906101000a900473ffffffffffffffffffffffffffffffffffffffff1673ffffffffffffffffffffffffffffffffffffffff1663a9059cbb600360009054906101000a900473ffffffffffffffffffffffffffffffffffffffff16600284600301546110069190612501565b6040518363ffffffff1660e01b815260040161102392919061221d565b602060405180830381600087803b15801561103d57600080fd5b505af1158015611051573d6000803e3d6000fd5b505050506040513d601f19601f820116820180604052508101906110759190611ce5565b6110b4576040517f08c379a00000000000000000000000000000000000000000000000000000000081526004016110ab9061236a565b60405180910390fd5b61135e565b600260009054906101000a900473ffffffffffffffffffffffffffffffffffffffff1673ffffffffffffffffffffffffffffffffffffffff1663a9059cbb60028360020160159054906101000a900460ff1660ff161461113d578260020160009054906101000a900473ffffffffffffffffffffffffffffffffffffffff16611163565b8260010160009054906101000a900473ffffffffffffffffffffffffffffffffffffffff165b6064846003015461117491906124d0565b600285600301546111859190612501565b61118f919061255b565b6040518363ffffffff1660e01b81526004016111ac92919061221d565b602060405180830381600087803b1580156111c657600080fd5b505af11580156111da573d6000803e3d6000fd5b505050506040513d601f19601f820116820180604052508101906111fe9190611ce5565b61123d576040517f08c379a00000000000000000000000000000000000000000000000000000000081526004016112349061240a565b60405180910390fd5b600260009054906101000a900473ffffffffffffffffffffffffffffffffffffffff1673ffffffffffffffffffffffffffffffffffffffff1663a9059cbb600360009054906101000a900473ffffffffffffffffffffffffffffffffffffffff16606484600301546112af91906124d0565b6040518363ffffffff1660e01b81526004016112cc92919061221d565b602060405180830381600087803b1580156112e657600080fd5b505af11580156112fa573d6000803e3d6000fd5b505050506040513d601f19601f8201168201806040525081019061131e9190611ce5565b61135d576040517f08c379a00000000000000000000000000000000000000000000000000000000081526004016113549061236a565b60405180910390fd5b5b5b505050565b60008060009054906101000a900473ffffffffffffffffffffffffffffffffffffffff16905090565b60606000600460003373ffffffffffffffffffffffffffffffffffffffff1673ffffffffffffffffffffffffffffffffffffffff1681526020019081526020016000208054905067ffffffffffffffff811115611413577f4e487b7100000000000000000000000000000000000000000000000000000000600052604160045260246000fd5b60405190808252806020026020018201604052801561144c57816020015b611439611b06565b8152602001906001900390816114315790505b50905060005b815181101561153c576114e5600460003373ffffffffffffffffffffffffffffffffffffffff1673ffffffffffffffffffffffffffffffffffffffff16815260200190815260200160002082815481106114d5577f4e487b7100000000000000000000000000000000000000000000000000000000600052603260045260246000fd5b9060005260206000200154611823565b82828151811061151e577f4e487b7100000000000000000000000000000000000000000000000000000000600052603260045260246000fd5b6020026020010181905250808061153490612658565b915050611452565b508091505090565b6060600660008373ffffffffffffffffffffffffffffffffffffffff1673ffffffffffffffffffffffffffffffffffffffff168152602001908152602001600020805461159090612626565b80601f01602080910402602001604051908101604052809291908181526020018280546115bc90612626565b80156116095780601f106115de57610100808354040283529160200191611609565b820191906000526020600020905b8154815290600101906020018083116115ec57829003601f168201915b50505050509050919050565b600260009054906101000a900473ffffffffffffffffffffffffffffffffffffffff1681565b611643611757565b73ffffffffffffffffffffffffffffffffffffffff16611661611364565b73ffffffffffffffffffffffffffffffffffffffff16146116b7576040517f08c379a00000000000000000000000000000000000000000000000000000000081526004016116ae906123ca565b60405180910390fd5b600073ffffffffffffffffffffffffffffffffffffffff168173ffffffffffffffffffffffffffffffffffffffff161415611727576040517f08c379a000000000000000000000000000000000000000000000000000000000815260040161171e9061230a565b60405180910390fd5b6117308161175f565b50565b600081600001549050919050565b6001816000016000828254019250508190555050565b600033905090565b60008060009054906101000a900473ffffffffffffffffffffffffffffffffffffffff169050816000806101000a81548173ffffffffffffffffffffffffffffffffffffffff021916908373ffffffffffffffffffffffffffffffffffffffff1602179055508173ffffffffffffffffffffffffffffffffffffffff168173ffffffffffffffffffffffffffffffffffffffff167f8be0079c531659141344cd1fd0a4f28419497f9722a3daafe3b4186f6b6457e060405160405180910390a35050565b61182b611b06565b600560008381526020019081526020016000206040518061010001604052908160008201805461185a90612626565b80601f016020809104026020016040519081016040528092919081815260200182805461188690612626565b80156118d35780601f106118a8576101008083540402835291602001916118d3565b820191906000526020600020905b8154815290600101906020018083116118b657829003601f168201915b505050505081526020016001820160009054906101000a900473ffffffffffffffffffffffffffffffffffffffff1673ffffffffffffffffffffffffffffffffffffffff1673ffffffffffffffffffffffffffffffffffffffff1681526020016002820160009054906101000a900473ffffffffffffffffffffffffffffffffffffffff1673ffffffffffffffffffffffffffffffffffffffff1673ffffffffffffffffffffffffffffffffffffffff1681526020016002820160149054906101000a900460ff1660ff1660ff1681526020016002820160159054906101000a900460ff1660ff1660ff1681526020016002820160169054906101000a900460ff1660ff1660ff168152602001600382015481526020016004820154815250509050919050565b828054611a0690612626565b90600052602060002090601f016020900481019282611a285760008555611a6f565b82601f10611a4157803560ff1916838001178555611a6f565b82800160010185558215611a6f579182015b82811115611a6e578235825591602001919060010190611a53565b5b509050611a7c9190611b80565b5090565b828054611a8c90612626565b90600052602060002090601f016020900481019282611aae5760008555611af5565b82601f10611ac757805160ff1916838001178555611af5565b82800160010185558215611af5579182015b82811115611af4578251825591602001919060010190611ad9565b5b509050611b029190611b80565b5090565b60405180610100016040528060608152602001600073ffffffffffffffffffffffffffffffffffffffff168152602001600073ffffffffffffffffffffffffffffffffffffffff168152602001600060ff168152602001600060ff168152602001600060ff16815260200160008152602001600081525090565b5b80821115611b99576000816000905550600101611b81565b5090565b600081359050611bac8161297a565b92915050565b600081519050611bc181612991565b92915050565b60008083601f840112611bd957600080fd5b8235905067ffffffffffffffff811115611bf257600080fd5b602083019150836001820283011115611c0a57600080fd5b9250929050565b600081359050611c20816129a8565b92915050565b600081519050611c35816129a8565b92915050565b600081359050611c4a816129bf565b92915050565b600060208284031215611c6257600080fd5b6000611c7084828501611b9d565b91505092915050565b60008060008060608587031215611c8f57600080fd5b6000611c9d87828801611b9d565b9450506020611cae87828801611c11565b935050604085013567ffffffffffffffff811115611ccb57600080fd5b611cd787828801611bc7565b925092505092959194509250565b600060208284031215611cf757600080fd5b6000611d0584828501611bb2565b91505092915050565b60008060208385031215611d2157600080fd5b600083013567ffffffffffffffff811115611d3b57600080fd5b611d4785828601611bc7565b92509250509250929050565b600060208284031215611d6557600080fd5b6000611d7384828501611c26565b91505092915050565b60008060408385031215611d8f57600080fd5b6000611d9d85828601611c11565b9250506020611dae85828601611c3b565b9150509250929050565b6000611dc483836120c5565b905092915050565b611dd58161258f565b82525050565b611de48161258f565b82525050565b6000611df58261247a565b611dff818561249d565b935083602082028501611e118561246a565b8060005b85811015611e4d5784840389528151611e2e8582611db8565b9450611e3983612490565b925060208a01995050600181019050611e15565b50829750879550505050505092915050565b6000611e6b83856124bf565b9350611e788385846125e4565b611e818361272e565b840190509392505050565b6000611e9782612485565b611ea181856124ae565b9350611eb18185602086016125f3565b611eba8161272e565b840191505092915050565b6000611ed082612485565b611eda81856124bf565b9350611eea8185602086016125f3565b611ef38161272e565b840191505092915050565b6000611f0b6013836124bf565b9150611f168261273f565b602082019050919050565b6000611f2e601c836124bf565b9150611f3982612768565b602082019050919050565b6000611f516019836124bf565b9150611f5c82612791565b602082019050919050565b6000611f74601b836124bf565b9150611f7f826127ba565b602082019050919050565b6000611f976026836124bf565b9150611fa2826127e3565b604082019050919050565b6000611fba600f836124bf565b9150611fc582612832565b602082019050919050565b6000611fdd6016836124bf565b9150611fe88261285b565b602082019050919050565b60006120006013836124bf565b915061200b82612884565b602082019050919050565b60006120236012836124bf565b915061202e826128ad565b602082019050919050565b60006120466011836124bf565b9150612051826128d6565b602082019050919050565b60006120696020836124bf565b9150612074826128ff565b602082019050919050565b600061208c6018836124bf565b915061209782612928565b602082019050919050565b60006120af6016836124bf565b91506120ba82612951565b602082019050919050565b60006101008301600083015184820360008601526120e38282611e8c565b91505060208301516120f86020860182611dcc565b50604083015161210b6040860182611dcc565b50606083015161211e6060860182612193565b5060808301516121316080860182612193565b5060a083015161214460a0860182612193565b5060c083015161215760c0860182612175565b5060e083015161216a60e0860182612175565b508091505092915050565b61217e816125cd565b82525050565b61218d816125cd565b82525050565b61219c816125d7565b82525050565b60006020820190506121b76000830184611ddb565b92915050565b60006040820190506121d26000830185611ddb565b6121df6020830184611ddb565b9392505050565b60006060820190506121fb6000830186611ddb565b6122086020830185611ddb565b6122156040830184612184565b949350505050565b60006040820190506122326000830185611ddb565b61223f6020830184612184565b9392505050565b600060208201905081810360008301526122608184611dea565b905092915050565b600060208201905081810360008301526122828184611ec5565b905092915050565b600060208201905081810360008301526122a381611efe565b9050919050565b600060208201905081810360008301526122c381611f21565b9050919050565b600060208201905081810360008301526122e381611f44565b9050919050565b6000602082019050818103600083015261230381611f67565b9050919050565b6000602082019050818103600083015261232381611f8a565b9050919050565b6000602082019050818103600083015261234381611fad565b9050919050565b6000602082019050818103600083015261236381611fd0565b9050919050565b6000602082019050818103600083015261238381611ff3565b9050919050565b600060208201905081810360008301526123a381612016565b9050919050565b600060208201905081810360008301526123c381612039565b9050919050565b600060208201905081810360008301526123e38161205c565b9050919050565b600060208201905081810360008301526124038161207f565b9050919050565b60006020820190508181036000830152612423816120a2565b9050919050565b600060608201905061243f6000830187612184565b8181036020830152612452818587611e5f565b90506124616040830184612184565b95945050505050565b6000819050602082019050919050565b600081519050919050565b600081519050919050565b6000602082019050919050565b600082825260208201905092915050565b600082825260208201905092915050565b600082825260208201905092915050565b60006124db826125cd565b91506124e6836125cd565b9250826124f6576124f56126d0565b5b828204905092915050565b600061250c826125cd565b9150612517836125cd565b9250817fffffffffffffffffffffffffffffffffffffffffffffffffffffffffffffffff04831182151516156125505761254f6126a1565b5b828202905092915050565b6000612566826125cd565b9150612571836125cd565b925082821015612584576125836126a1565b5b828203905092915050565b600061259a826125ad565b9050919050565b60008115159050919050565b600073ffffffffffffffffffffffffffffffffffffffff82169050919050565b6000819050919050565b600060ff82169050919050565b82818337600083830152505050565b60005b838110156126115780820151818401526020810190506125f6565b83811115612620576000848401525b50505050565b6000600282049050600182168061263e57607f821691505b60208210811415612652576126516126ff565b5b50919050565b6000612663826125cd565b91507fffffffffffffffffffffffffffffffffffffffffffffffffffffffffffffffff821415612696576126956126a1565b5b600182019050919050565b7f4e487b7100000000000000000000000000000000000000000000000000000000600052601160045260246000fd5b7f4e487b7100000000000000000000000000000000000000000000000000000000600052601260045260246000fd5b7f4e487b7100000000000000000000000000000000000000000000000000000000600052602260045260246000fd5b6000601f19601f8301169050919050565b7f466f7262696464656e20526573706f6e64657200000000000000000000000000600082015250565b7f52657475726e207374616b65207472616e73666572206661696c656400000000600082015250565b7f526573706f6e736520616c7265616479207265636f7264656400000000000000600082015250565b7f4d61746368207374616b65207472616e73666572206661696c65640000000000600082015250565b7f4f776e61626c653a206e6577206f776e657220697320746865207a65726f206160008201527f6464726573730000000000000000000000000000000000000000000000000000602082015250565b7f5472616e73666572206661696c65640000000000000000000000000000000000600082015250565b7f496e73756666696369656e7420616c6c6f77616e636500000000000000000000600082015250565b7f466565207472616e73666572206661696c656400000000000000000000000000600082015250565b7f466f7262696464656e20526573706f6e73650000000000000000000000000000600082015250565b7f466f7262696464656e2056657264696374000000000000000000000000000000600082015250565b7f4f776e61626c653a2063616c6c6572206973206e6f7420746865206f776e6572600082015250565b7f5665726469637420616c7265616479207265636f726465640000000000000000600082015250565b7f5061796f7574207472616e73666572206661696c656400000000000000000000600082015250565b6129838161258f565b811461298e57600080fd5b50565b61299a816125a1565b81146129a557600080fd5b50565b6129b1816125cd565b81146129bc57600080fd5b50565b6129c8816125d7565b81146129d357600080fd5b5056fea2646970667358221220f76b2ba32e87f6b813d3ba825b891ba6070ae5904092bb6c622810a59aa62a7064736f6c63430008040033",
  "linkReferences": {},
  "deployedLinkReferences": {}
}